{
  "_format": "hh-sol-artifact-1",
  "contractName": "MyNFT",
  "sourceName": "contracts/MyNFT.sol",
  "abi": [
    {
      "inputs": [
        {
          "internalType": "string",
          "name": "name",
          "type": "string"
        },
        {
          "internalType": "string",
          "name": "abbreviation",
          "type": "string"
        }
      ],
      "stateMutability": "nonpayable",
      "type": "constructor"
    },
    {
      "anonymous": false,
      "inputs": [
        {
          "indexed": true,
          "internalType": "address",
          "name": "owner",
          "type": "address"
        },
        {
          "indexed": true,
          "internalType": "address",
          "name": "approved",
          "type": "address"
        },
        {
          "indexed": true,
          "internalType": "uint256",
          "name": "tokenId",
          "type": "uint256"
        }
      ],
      "name": "Approval",
      "type": "event"
    },
    {
      "anonymous": false,
      "inputs": [
        {
          "indexed": true,
          "internalType": "address",
          "name": "owner",
          "type": "address"
        },
        {
          "indexed": true,
          "internalType": "address",
          "name": "operator",
          "type": "address"
        },
        {
          "indexed": false,
          "internalType": "bool",
          "name": "approved",
          "type": "bool"
        }
      ],
      "name": "ApprovalForAll",
      "type": "event"
    },
    {
      "anonymous": false,
      "inputs": [
        {
          "indexed": false,
          "internalType": "uint256",
          "name": "id",
          "type": "uint256"
        }
      ],
      "name": "NFTId",
      "type": "event"
    },
    {
      "anonymous": false,
      "inputs": [
        {
          "indexed": true,
          "internalType": "address",
          "name": "previousOwner",
          "type": "address"
        },
        {
          "indexed": true,
          "internalType": "address",
          "name": "newOwner",
          "type": "address"
        }
      ],
      "name": "OwnershipTransferred",
      "type": "event"
    },
    {
      "anonymous": false,
      "inputs": [
        {
          "indexed": true,
          "internalType": "address",
          "name": "from",
          "type": "address"
        },
        {
          "indexed": true,
          "internalType": "address",
          "name": "to",
          "type": "address"
        },
        {
          "indexed": true,
          "internalType": "uint256",
          "name": "tokenId",
          "type": "uint256"
        }
      ],
      "name": "Transfer",
      "type": "event"
    },
    {
      "inputs": [
        {
          "internalType": "address",
          "name": "to",
          "type": "address"
        },
        {
          "internalType": "uint256",
          "name": "tokenId",
          "type": "uint256"
        }
      ],
      "name": "approve",
      "outputs": [],
      "stateMutability": "nonpayable",
      "type": "function"
    },
    {
      "inputs": [
        {
          "internalType": "address",
          "name": "owner",
          "type": "address"
        }
      ],
      "name": "balanceOf",
      "outputs": [
        {
          "internalType": "uint256",
          "name": "",
          "type": "uint256"
        }
      ],
      "stateMutability": "view",
      "type": "function"
    },
    {
      "inputs": [
        {
          "internalType": "uint256",
          "name": "tokenId",
          "type": "uint256"
        }
      ],
      "name": "getApproved",
      "outputs": [
        {
          "internalType": "address",
          "name": "",
          "type": "address"
        }
      ],
      "stateMutability": "view",
      "type": "function"
    },
    {
      "inputs": [],
      "name": "getID",
      "outputs": [
        {
          "internalType": "uint256",
          "name": "",
          "type": "uint256"
        }
      ],
      "stateMutability": "view",
      "type": "function"
    },
    {
      "inputs": [
        {
          "internalType": "address",
          "name": "owner",
          "type": "address"
        },
        {
          "internalType": "address",
          "name": "operator",
          "type": "address"
        }
      ],
      "name": "isApprovedForAll",
      "outputs": [
        {
          "internalType": "bool",
          "name": "",
          "type": "bool"
        }
      ],
      "stateMutability": "view",
      "type": "function"
    },
    {
      "inputs": [
        {
          "internalType": "address",
          "name": "recipient",
          "type": "address"
        },
        {
          "internalType": "string",
          "name": "tokenURI",
          "type": "string"
        }
      ],
      "name": "mintNFT",
      "outputs": [
        {
          "internalType": "uint256",
          "name": "",
          "type": "uint256"
        }
      ],
      "stateMutability": "nonpayable",
      "type": "function"
    },
    {
      "inputs": [],
      "name": "name",
      "outputs": [
        {
          "internalType": "string",
          "name": "",
          "type": "string"
        }
      ],
      "stateMutability": "view",
      "type": "function"
    },
    {
      "inputs": [],
      "name": "owner",
      "outputs": [
        {
          "internalType": "address",
          "name": "",
          "type": "address"
        }
      ],
      "stateMutability": "view",
      "type": "function"
    },
    {
      "inputs": [
        {
          "internalType": "uint256",
          "name": "tokenId",
          "type": "uint256"
        }
      ],
      "name": "ownerOf",
      "outputs": [
        {
          "internalType": "address",
          "name": "",
          "type": "address"
        }
      ],
      "stateMutability": "view",
      "type": "function"
    },
    {
      "inputs": [],
      "name": "renounceOwnership",
      "outputs": [],
      "stateMutability": "nonpayable",
      "type": "function"
    },
    {
      "inputs": [
        {
          "internalType": "address",
          "name": "from",
          "type": "address"
        },
        {
          "internalType": "address",
          "name": "to",
          "type": "address"
        },
        {
          "internalType": "uint256",
          "name": "tokenId",
          "type": "uint256"
        }
      ],
      "name": "safeTransferFrom",
      "outputs": [],
      "stateMutability": "nonpayable",
      "type": "function"
    },
    {
      "inputs": [
        {
          "internalType": "address",
          "name": "from",
          "type": "address"
        },
        {
          "internalType": "address",
          "name": "to",
          "type": "address"
        },
        {
          "internalType": "uint256",
          "name": "tokenId",
          "type": "uint256"
        },
        {
          "internalType": "bytes",
          "name": "data",
          "type": "bytes"
        }
      ],
      "name": "safeTransferFrom",
      "outputs": [],
      "stateMutability": "nonpayable",
      "type": "function"
    },
    {
      "inputs": [
        {
          "internalType": "address",
          "name": "operator",
          "type": "address"
        },
        {
          "internalType": "bool",
          "name": "approved",
          "type": "bool"
        }
      ],
      "name": "setApprovalForAll",
      "outputs": [],
      "stateMutability": "nonpayable",
      "type": "function"
    },
    {
      "inputs": [
        {
          "internalType": "bytes4",
          "name": "interfaceId",
          "type": "bytes4"
        }
      ],
      "name": "supportsInterface",
      "outputs": [
        {
          "internalType": "bool",
          "name": "",
          "type": "bool"
        }
      ],
      "stateMutability": "view",
      "type": "function"
    },
    {
      "inputs": [],
      "name": "symbol",
      "outputs": [
        {
          "internalType": "string",
          "name": "",
          "type": "string"
        }
      ],
      "stateMutability": "view",
      "type": "function"
    },
    {
      "inputs": [
        {
          "internalType": "uint256",
          "name": "tokenId",
          "type": "uint256"
        }
      ],
      "name": "tokenURI",
      "outputs": [
        {
          "internalType": "string",
          "name": "",
          "type": "string"
        }
      ],
      "stateMutability": "view",
      "type": "function"
    },
    {
      "inputs": [
        {
          "internalType": "address",
          "name": "from",
          "type": "address"
        },
        {
          "internalType": "address",
          "name": "to",
          "type": "address"
        },
        {
          "internalType": "uint256",
          "name": "tokenId",
          "type": "uint256"
        }
      ],
      "name": "transferFrom",
      "outputs": [],
      "stateMutability": "nonpayable",
      "type": "function"
    },
    {
      "inputs": [
        {
          "internalType": "address",
          "name": "newOwner",
          "type": "address"
        }
      ],
      "name": "transferOwnership",
      "outputs": [],
      "stateMutability": "nonpayable",
      "type": "function"
    }
  ],
  "bytecode": "0x60806040523480156200001157600080fd5b506040516200317738038062003177833981810160405281019062000037919062000285565b818181600090805190602001906200005192919062000163565b5080600190805190602001906200006a92919062000163565b5050506200008d620000816200009560201b60201c565b6200009d60201b60201c565b505062000468565b600033905090565b6000600760009054906101000a900473ffffffffffffffffffffffffffffffffffffffff16905081600760006101000a81548173ffffffffffffffffffffffffffffffffffffffff021916908373ffffffffffffffffffffffffffffffffffffffff1602179055508173ffffffffffffffffffffffffffffffffffffffff168173ffffffffffffffffffffffffffffffffffffffff167f8be0079c531659141344cd1fd0a4f28419497f9722a3daafe3b4186f6b6457e060405160405180910390a35050565b82805462000171906200038d565b90600052602060002090601f016020900481019282620001955760008555620001e1565b82601f10620001b057805160ff1916838001178555620001e1565b82800160010185558215620001e1579182015b82811115620001e0578251825591602001919060010190620001c3565b5b509050620001f09190620001f4565b5090565b5b808211156200020f576000816000905550600101620001f5565b5090565b60006200022a620002248462000321565b620002f8565b9050828152602081018484840111156200024357600080fd5b6200025084828562000357565b509392505050565b600082601f8301126200026a57600080fd5b81516200027c84826020860162000213565b91505092915050565b600080604083850312156200029957600080fd5b600083015167ffffffffffffffff811115620002b457600080fd5b620002c28582860162000258565b925050602083015167ffffffffffffffff811115620002e057600080fd5b620002ee8582860162000258565b9150509250929050565b60006200030462000317565b9050620003128282620003c3565b919050565b6000604051905090565b600067ffffffffffffffff8211156200033f576200033e62000428565b5b6200034a8262000457565b9050602081019050919050565b60005b83811015620003775780820151818401526020810190506200035a565b8381111562000387576000848401525b50505050565b60006002820490506001821680620003a657607f821691505b60208210811415620003bd57620003bc620003f9565b5b50919050565b620003ce8262000457565b810181811067ffffffffffffffff82111715620003f057620003ef62000428565b5b80604052505050565b7f4e487b7100000000000000000000000000000000000000000000000000000000600052602260045260246000fd5b7f4e487b7100000000000000000000000000000000000000000000000000000000600052604160045260246000fd5b6000601f19601f8301169050919050565b612cff80620004786000396000f3fe608060405234801561001057600080fd5b50600436106101165760003560e01c80638da5cb5b116100a2578063b88d4fde11610071578063b88d4fde146102cd578063c87b56dd146102e9578063e985e9c514610319578063eacabe1414610349578063f2fde38b1461037957610116565b80638da5cb5b1461025757806395d89b4114610275578063a22cb46514610293578063ab9dbd07146102af57610116565b806323b872dd116100e957806323b872dd146101b557806342842e0e146101d15780636352211e146101ed57806370a082311461021d578063715018a61461024d57610116565b806301ffc9a71461011b57806306fdde031461014b578063081812fc14610169578063095ea7b314610199575b600080fd5b610135600480360381019061013091906120af565b610395565b604051610142919061246f565b60405180910390f35b610153610477565b604051610160919061248a565b60405180910390f35b610183600480360381019061017e9190612101565b610509565b6040516101909190612408565b60405180910390f35b6101b360048036038101906101ae9190612073565b61054f565b005b6101cf60048036038101906101ca9190611f19565b610667565b005b6101eb60048036038101906101e69190611f19565b6106c7565b005b61020760048036038101906102029190612101565b6106e7565b6040516102149190612408565b60405180910390f35b61023760048036038101906102329190611eb4565b61076e565b604051610244919061266c565b60405180910390f35b610255610826565b005b61025f61083a565b60405161026c9190612408565b60405180910390f35b61027d610864565b60405161028a919061248a565b60405180910390f35b6102ad60048036038101906102a89190611fe3565b6108f6565b005b6102b761090c565b6040516102c4919061266c565b60405180910390f35b6102e760048036038101906102e29190611f68565b610925565b005b61030360048036038101906102fe9190612101565b610987565b604051610310919061248a565b60405180910390f35b610333600480360381019061032e9190611edd565b610a9a565b604051610340919061246f565b60405180910390f35b610363600480360381019061035e919061201f565b610b2e565b604051610370919061266c565b60405180910390f35b610393600480360381019061038e9190611eb4565b610b6e565b005b60007f80ac58cd000000000000000000000000000000000000000000000000000000007bffffffffffffffffffffffffffffffffffffffffffffffffffffffff1916827bffffffffffffffffffffffffffffffffffffffffffffffffffffffff1916148061046057507f5b5e139f000000000000000000000000000000000000000000000000000000007bffffffffffffffffffffffffffffffffffffffffffffffffffffffff1916827bffffffffffffffffffffffffffffffffffffffffffffffffffffffff1916145b80610470575061046f82610bf2565b5b9050919050565b60606000805461048690612807565b80601f01602080910402602001604051908101604052809291908181526020018280546104b290612807565b80156104ff5780601f106104d4576101008083540402835291602001916104ff565b820191906000526020600020905b8154815290600101906020018083116104e257829003601f168201915b5050505050905090565b600061051482610c5c565b6004600083815260200190815260200160002060009054906101000a900473ffffffffffffffffffffffffffffffffffffffff169050919050565b600061055a826106e7565b90508073ffffffffffffffffffffffffffffffffffffffff168373ffffffffffffffffffffffffffffffffffffffff1614156105cb576040517f08c379a00000000000000000000000000000000000000000000000000000000081526004016105c29061262c565b60405180910390fd5b8073ffffffffffffffffffffffffffffffffffffffff166105ea610ca7565b73ffffffffffffffffffffffffffffffffffffffff161480610619575061061881610613610ca7565b610a9a565b5b610658576040517f08c379a000000000000000000000000000000000000000000000000000000000815260040161064f9061264c565b60405180910390fd5b6106628383610caf565b505050565b610678610672610ca7565b82610d68565b6106b7576040517f08c379a00000000000000000000000000000000000000000000000000000000081526004016106ae906124ac565b60405180910390fd5b6106c2838383610dfd565b505050565b6106e283838360405180602001604052806000815250610925565b505050565b6000806106f3836110f7565b9050600073ffffffffffffffffffffffffffffffffffffffff168173ffffffffffffffffffffffffffffffffffffffff161415610765576040517f08c379a000000000000000000000000000000000000000000000000000000000815260040161075c9061260c565b60405180910390fd5b80915050919050565b60008073ffffffffffffffffffffffffffffffffffffffff168273ffffffffffffffffffffffffffffffffffffffff1614156107df576040517f08c379a00000000000000000000000000000000000000000000000000000000081526004016107d69061258c565b60405180910390fd5b600360008373ffffffffffffffffffffffffffffffffffffffff1673ffffffffffffffffffffffffffffffffffffffff168152602001908152602001600020549050919050565b61082e611134565b61083860006111b2565b565b6000600760009054906101000a900473ffffffffffffffffffffffffffffffffffffffff16905090565b60606001805461087390612807565b80601f016020809104026020016040519081016040528092919081815260200182805461089f90612807565b80156108ec5780601f106108c1576101008083540402835291602001916108ec565b820191906000526020600020905b8154815290600101906020018083116108cf57829003601f168201915b5050505050905090565b610908610901610ca7565b8383611278565b5050565b6000610916611134565b61092060086113e5565b905090565b610936610930610ca7565b83610d68565b610975576040517f08c379a000000000000000000000000000000000000000000000000000000000815260040161096c906124ac565b60405180910390fd5b610981848484846113f3565b50505050565b606061099282610c5c565b60006006600084815260200190815260200160002080546109b290612807565b80601f01602080910402602001604051908101604052809291908181526020018280546109de90612807565b8015610a2b5780601f10610a0057610100808354040283529160200191610a2b565b820191906000526020600020905b815481529060010190602001808311610a0e57829003601f168201915b505050505090506000610a3c61144f565b9050600081511415610a52578192505050610a95565b600082511115610a87578082604051602001610a6f9291906123e4565b60405160208183030381529060405292505050610a95565b610a9084611466565b925050505b919050565b6000600560008473ffffffffffffffffffffffffffffffffffffffff1673ffffffffffffffffffffffffffffffffffffffff16815260200190815260200160002060008373ffffffffffffffffffffffffffffffffffffffff1673ffffffffffffffffffffffffffffffffffffffff16815260200190815260200160002060009054906101000a900460ff16905092915050565b6000610b38611134565b610b4260086114ce565b6000610b4e60086113e5565b9050610b5a84826114e4565b610b648184611702565b8091505092915050565b610b76611134565b600073ffffffffffffffffffffffffffffffffffffffff168173ffffffffffffffffffffffffffffffffffffffff161415610be6576040517f08c379a0000000000000000000000000000000000000000000000000000000008152600401610bdd906124ec565b60405180910390fd5b610bef816111b2565b50565b60007f01ffc9a7000000000000000000000000000000000000000000000000000000007bffffffffffffffffffffffffffffffffffffffffffffffffffffffff1916827bffffffffffffffffffffffffffffffffffffffffffffffffffffffff1916149050919050565b610c6581611776565b610ca4576040517f08c379a0000000000000000000000000000000000000000000000000000000008152600401610c9b9061260c565b60405180910390fd5b50565b600033905090565b816004600083815260200190815260200160002060006101000a81548173ffffffffffffffffffffffffffffffffffffffff021916908373ffffffffffffffffffffffffffffffffffffffff160217905550808273ffffffffffffffffffffffffffffffffffffffff16610d22836106e7565b73ffffffffffffffffffffffffffffffffffffffff167f8c5be1e5ebec7d5bd14f71427d1e84f3dd0314c0f7b2291e5b200ac8c7c3b92560405160405180910390a45050565b600080610d74836106e7565b90508073ffffffffffffffffffffffffffffffffffffffff168473ffffffffffffffffffffffffffffffffffffffff161480610db65750610db58185610a9a565b5b80610df457508373ffffffffffffffffffffffffffffffffffffffff16610ddc84610509565b73ffffffffffffffffffffffffffffffffffffffff16145b91505092915050565b8273ffffffffffffffffffffffffffffffffffffffff16610e1d826106e7565b73ffffffffffffffffffffffffffffffffffffffff1614610e73576040517f08c379a0000000000000000000000000000000000000000000000000000000008152600401610e6a9061250c565b60405180910390fd5b600073ffffffffffffffffffffffffffffffffffffffff168273ffffffffffffffffffffffffffffffffffffffff161415610ee3576040517f08c379a0000000000000000000000000000000000000000000000000000000008152600401610eda9061254c565b60405180910390fd5b610ef083838360016117b7565b8273ffffffffffffffffffffffffffffffffffffffff16610f10826106e7565b73ffffffffffffffffffffffffffffffffffffffff1614610f66576040517f08c379a0000000000000000000000000000000000000000000000000000000008152600401610f5d9061250c565b60405180910390fd5b6004600082815260200190815260200160002060006101000a81549073ffffffffffffffffffffffffffffffffffffffff02191690556001600360008573ffffffffffffffffffffffffffffffffffffffff1673ffffffffffffffffffffffffffffffffffffffff168152602001908152602001600020600082825403925050819055506001600360008473ffffffffffffffffffffffffffffffffffffffff1673ffffffffffffffffffffffffffffffffffffffff16815260200190815260200160002060008282540192505081905550816002600083815260200190815260200160002060006101000a81548173ffffffffffffffffffffffffffffffffffffffff021916908373ffffffffffffffffffffffffffffffffffffffff160217905550808273ffffffffffffffffffffffffffffffffffffffff168473ffffffffffffffffffffffffffffffffffffffff167fddf252ad1be2c89b69c2b068fc378daa952ba7f163c4a11628f55a4df523b3ef60405160405180910390a46110f283838360016117bd565b505050565b60006002600083815260200190815260200160002060009054906101000a900473ffffffffffffffffffffffffffffffffffffffff169050919050565b61113c610ca7565b73ffffffffffffffffffffffffffffffffffffffff1661115a61083a565b73ffffffffffffffffffffffffffffffffffffffff16146111b0576040517f08c379a00000000000000000000000000000000000000000000000000000000081526004016111a7906125ec565b60405180910390fd5b565b6000600760009054906101000a900473ffffffffffffffffffffffffffffffffffffffff16905081600760006101000a81548173ffffffffffffffffffffffffffffffffffffffff021916908373ffffffffffffffffffffffffffffffffffffffff1602179055508173ffffffffffffffffffffffffffffffffffffffff168173ffffffffffffffffffffffffffffffffffffffff167f8be0079c531659141344cd1fd0a4f28419497f9722a3daafe3b4186f6b6457e060405160405180910390a35050565b8173ffffffffffffffffffffffffffffffffffffffff168373ffffffffffffffffffffffffffffffffffffffff1614156112e7576040517f08c379a00000000000000000000000000000000000000000000000000000000081526004016112de9061256c565b60405180910390fd5b80600560008573ffffffffffffffffffffffffffffffffffffffff1673ffffffffffffffffffffffffffffffffffffffff16815260200190815260200160002060008473ffffffffffffffffffffffffffffffffffffffff1673ffffffffffffffffffffffffffffffffffffffff16815260200190815260200160002060006101000a81548160ff0219169083151502179055508173ffffffffffffffffffffffffffffffffffffffff168373ffffffffffffffffffffffffffffffffffffffff167f17307eab39ab6107e8899845ad3d59bd9653f200f220920489ca2b5937696c31836040516113d8919061246f565b60405180910390a3505050565b600081600001549050919050565b6113fe848484610dfd565b61140a848484846117c3565b611449576040517f08c379a0000000000000000000000000000000000000000000000000000000008152600401611440906124cc565b60405180910390fd5b50505050565b606060405180602001604052806000815250905090565b606061147182610c5c565b600061147b61144f565b9050600081511161149b57604051806020016040528060008152506114c6565b806114a58461195a565b6040516020016114b69291906123e4565b6040516020818303038152906040525b915050919050565b6001816000016000828254019250508190555050565b600073ffffffffffffffffffffffffffffffffffffffff168273ffffffffffffffffffffffffffffffffffffffff161415611554576040517f08c379a000000000000000000000000000000000000000000000000000000000815260040161154b906125cc565b60405180910390fd5b61155d81611776565b1561159d576040517f08c379a00000000000000000000000000000000000000000000000000000000081526004016115949061252c565b60405180910390fd5b6115ab6000838360016117b7565b6115b481611776565b156115f4576040517f08c379a00000000000000000000000000000000000000000000000000000000081526004016115eb9061252c565b60405180910390fd5b6001600360008473ffffffffffffffffffffffffffffffffffffffff1673ffffffffffffffffffffffffffffffffffffffff16815260200190815260200160002060008282540192505081905550816002600083815260200190815260200160002060006101000a81548173ffffffffffffffffffffffffffffffffffffffff021916908373ffffffffffffffffffffffffffffffffffffffff160217905550808273ffffffffffffffffffffffffffffffffffffffff16600073ffffffffffffffffffffffffffffffffffffffff167fddf252ad1be2c89b69c2b068fc378daa952ba7f163c4a11628f55a4df523b3ef60405160405180910390a46116fe6000838360016117bd565b5050565b61170b82611776565b61174a576040517f08c379a0000000000000000000000000000000000000000000000000000000008152600401611741906125ac565b60405180910390fd5b80600660008481526020019081526020016000209080519060200190611771929190611cd8565b505050565b60008073ffffffffffffffffffffffffffffffffffffffff16611798836110f7565b73ffffffffffffffffffffffffffffffffffffffff1614159050919050565b50505050565b50505050565b60006117e48473ffffffffffffffffffffffffffffffffffffffff16611a7e565b1561194d578373ffffffffffffffffffffffffffffffffffffffff1663150b7a0261180d610ca7565b8786866040518563ffffffff1660e01b815260040161182f9493929190612423565b602060405180830381600087803b15801561184957600080fd5b505af192505050801561187a57506040513d601f19601f8201168201806040525081019061187791906120d8565b60015b6118fd573d80600081146118aa576040519150601f19603f3d011682016040523d82523d6000602084013e6118af565b606091505b506000815114156118f5576040517f08c379a00000000000000000000000000000000000000000000000000000000081526004016118ec906124cc565b60405180910390fd5b805181602001fd5b63150b7a0260e01b7bffffffffffffffffffffffffffffffffffffffffffffffffffffffff1916817bffffffffffffffffffffffffffffffffffffffffffffffffffffffff191614915050611952565b600190505b949350505050565b60606000600161196984611aa1565b01905060008167ffffffffffffffff8111156119ae577f4e487b7100000000000000000000000000000000000000000000000000000000600052604160045260246000fd5b6040519080825280601f01601f1916602001820160405280156119e05781602001600182028036833780820191505090505b509050600082602001820190505b600115611a73578080600190039150507f3031323334353637383961626364656600000000000000000000000000000000600a86061a8153600a8581611a5d577f4e487b7100000000000000000000000000000000000000000000000000000000600052601260045260246000fd5b0494506000851415611a6e57611a73565b6119ee565b819350505050919050565b6000808273ffffffffffffffffffffffffffffffffffffffff163b119050919050565b600080600090507a184f03e93ff9f4daa797ed6e38ed64bf6a1f0100000000000000008310611b25577a184f03e93ff9f4daa797ed6e38ed64bf6a1f0100000000000000008381611b1b577f4e487b7100000000000000000000000000000000000000000000000000000000600052601260045260246000fd5b0492506040810190505b6d04ee2d6d415b85acef81000000008310611b88576d04ee2d6d415b85acef81000000008381611b7e577f4e487b7100000000000000000000000000000000000000000000000000000000600052601260045260246000fd5b0492506020810190505b662386f26fc100008310611bdd57662386f26fc100008381611bd3577f4e487b7100000000000000000000000000000000000000000000000000000000600052601260045260246000fd5b0492506010810190505b6305f5e1008310611c2c576305f5e1008381611c22577f4e487b7100000000000000000000000000000000000000000000000000000000600052601260045260246000fd5b0492506008810190505b6127108310611c77576127108381611c6d577f4e487b7100000000000000000000000000000000000000000000000000000000600052601260045260246000fd5b0492506004810190505b60648310611cc05760648381611cb6577f4e487b7100000000000000000000000000000000000000000000000000000000600052601260045260246000fd5b0492506002810190505b600a8310611ccf576001810190505b80915050919050565b828054611ce490612807565b90600052602060002090601f016020900481019282611d065760008555611d4d565b82601f10611d1f57805160ff1916838001178555611d4d565b82800160010185558215611d4d579182015b82811115611d4c578251825591602001919060010190611d31565b5b509050611d5a9190611d5e565b5090565b5b80821115611d77576000816000905550600101611d5f565b5090565b6000611d8e611d89846126ac565b612687565b905082815260208101848484011115611da657600080fd5b611db18482856127c5565b509392505050565b6000611dcc611dc7846126dd565b612687565b905082815260208101848484011115611de457600080fd5b611def8482856127c5565b509392505050565b600081359050611e0681612c6d565b92915050565b600081359050611e1b81612c84565b92915050565b600081359050611e3081612c9b565b92915050565b600081519050611e4581612c9b565b92915050565b600082601f830112611e5c57600080fd5b8135611e6c848260208601611d7b565b91505092915050565b600082601f830112611e8657600080fd5b8135611e96848260208601611db9565b91505092915050565b600081359050611eae81612cb2565b92915050565b600060208284031215611ec657600080fd5b6000611ed484828501611df7565b91505092915050565b60008060408385031215611ef057600080fd5b6000611efe85828601611df7565b9250506020611f0f85828601611df7565b9150509250929050565b600080600060608486031215611f2e57600080fd5b6000611f3c86828701611df7565b9350506020611f4d86828701611df7565b9250506040611f5e86828701611e9f565b9150509250925092565b60008060008060808587031215611f7e57600080fd5b6000611f8c87828801611df7565b9450506020611f9d87828801611df7565b9350506040611fae87828801611e9f565b925050606085013567ffffffffffffffff811115611fcb57600080fd5b611fd787828801611e4b565b91505092959194509250565b60008060408385031215611ff657600080fd5b600061200485828601611df7565b925050602061201585828601611e0c565b9150509250929050565b6000806040838503121561203257600080fd5b600061204085828601611df7565b925050602083013567ffffffffffffffff81111561205d57600080fd5b61206985828601611e75565b9150509250929050565b6000806040838503121561208657600080fd5b600061209485828601611df7565b92505060206120a585828601611e9f565b9150509250929050565b6000602082840312156120c157600080fd5b60006120cf84828501611e21565b91505092915050565b6000602082840312156120ea57600080fd5b60006120f884828501611e36565b91505092915050565b60006020828403121561211357600080fd5b600061212184828501611e9f565b91505092915050565b61213381612751565b82525050565b61214281612763565b82525050565b60006121538261270e565b61215d8185612724565b935061216d8185602086016127d4565b612176816128c8565b840191505092915050565b600061218c82612719565b6121968185612735565b93506121a68185602086016127d4565b6121af816128c8565b840191505092915050565b60006121c582612719565b6121cf8185612746565b93506121df8185602086016127d4565b80840191505092915050565b60006121f8602d83612735565b9150612203826128d9565b604082019050919050565b600061221b603283612735565b915061222682612928565b604082019050919050565b600061223e602683612735565b915061224982612977565b604082019050919050565b6000612261602583612735565b915061226c826129c6565b604082019050919050565b6000612284601c83612735565b915061228f82612a15565b602082019050919050565b60006122a7602483612735565b91506122b282612a3e565b604082019050919050565b60006122ca601983612735565b91506122d582612a8d565b602082019050919050565b60006122ed602983612735565b91506122f882612ab6565b604082019050919050565b6000612310602e83612735565b915061231b82612b05565b604082019050919050565b6000612333602083612735565b915061233e82612b54565b602082019050919050565b6000612356602083612735565b915061236182612b7d565b602082019050919050565b6000612379601883612735565b915061238482612ba6565b602082019050919050565b600061239c602183612735565b91506123a782612bcf565b604082019050919050565b60006123bf603d83612735565b91506123ca82612c1e565b604082019050919050565b6123de816127bb565b82525050565b60006123f082856121ba565b91506123fc82846121ba565b91508190509392505050565b600060208201905061241d600083018461212a565b92915050565b6000608082019050612438600083018761212a565b612445602083018661212a565b61245260408301856123d5565b81810360608301526124648184612148565b905095945050505050565b60006020820190506124846000830184612139565b92915050565b600060208201905081810360008301526124a48184612181565b905092915050565b600060208201905081810360008301526124c5816121eb565b9050919050565b600060208201905081810360008301526124e58161220e565b9050919050565b6000602082019050818103600083015261250581612231565b9050919050565b6000602082019050818103600083015261252581612254565b9050919050565b6000602082019050818103600083015261254581612277565b9050919050565b600060208201905081810360008301526125658161229a565b9050919050565b60006020820190508181036000830152612585816122bd565b9050919050565b600060208201905081810360008301526125a5816122e0565b9050919050565b600060208201905081810360008301526125c581612303565b9050919050565b600060208201905081810360008301526125e581612326565b9050919050565b6000602082019050818103600083015261260581612349565b9050919050565b600060208201905081810360008301526126258161236c565b9050919050565b600060208201905081810360008301526126458161238f565b9050919050565b60006020820190508181036000830152612665816123b2565b9050919050565b600060208201905061268160008301846123d5565b92915050565b60006126916126a2565b905061269d8282612839565b919050565b6000604051905090565b600067ffffffffffffffff8211156126c7576126c6612899565b5b6126d0826128c8565b9050602081019050919050565b600067ffffffffffffffff8211156126f8576126f7612899565b5b612701826128c8565b9050602081019050919050565b600081519050919050565b600081519050919050565b600082825260208201905092915050565b600082825260208201905092915050565b600081905092915050565b600061275c8261279b565b9050919050565b60008115159050919050565b60007fffffffff0000000000000000000000000000000000000000000000000000000082169050919050565b600073ffffffffffffffffffffffffffffffffffffffff82169050919050565b6000819050919050565b82818337600083830152505050565b60005b838110156127f25780820151818401526020810190506127d7565b83811115612801576000848401525b50505050565b6000600282049050600182168061281f57607f821691505b602082108114156128335761283261286a565b5b50919050565b612842826128c8565b810181811067ffffffffffffffff8211171561286157612860612899565b5b80604052505050565b7f4e487b7100000000000000000000000000000000000000000000000000000000600052602260045260246000fd5b7f4e487b7100000000000000000000000000000000000000000000000000000000600052604160045260246000fd5b6000601f19601f8301169050919050565b7f4552433732313a2063616c6c6572206973206e6f7420746f6b656e206f776e6560008201527f72206f7220617070726f76656400000000000000000000000000000000000000602082015250565b7f4552433732313a207472616e7366657220746f206e6f6e20455243373231526560008201527f63656976657220696d706c656d656e7465720000000000000000000000000000602082015250565b7f4f776e61626c653a206e6577206f776e657220697320746865207a65726f206160008201527f6464726573730000000000000000000000000000000000000000000000000000602082015250565b7f4552433732313a207472616e736665722066726f6d20696e636f72726563742060008201527f6f776e6572000000000000000000000000000000000000000000000000000000602082015250565b7f4552433732313a20746f6b656e20616c7265616479206d696e74656400000000600082015250565b7f4552433732313a207472616e7366657220746f20746865207a65726f2061646460008201527f7265737300000000000000000000000000000000000000000000000000000000602082015250565b7f4552433732313a20617070726f766520746f2063616c6c657200000000000000600082015250565b7f4552433732313a2061646472657373207a65726f206973206e6f74206120766160008201527f6c6964206f776e65720000000000000000000000000000000000000000000000602082015250565b7f45524337323155524953746f726167653a2055524920736574206f66206e6f6e60008201527f6578697374656e7420746f6b656e000000000000000000000000000000000000602082015250565b7f4552433732313a206d696e7420746f20746865207a65726f2061646472657373600082015250565b7f4f776e61626c653a2063616c6c6572206973206e6f7420746865206f776e6572600082015250565b7f4552433732313a20696e76616c696420746f6b656e2049440000000000000000600082015250565b7f4552433732313a20617070726f76616c20746f2063757272656e74206f776e6560008201527f7200000000000000000000000000000000000000000000000000000000000000602082015250565b7f4552433732313a20617070726f76652063616c6c6572206973206e6f7420746f60008201527f6b656e206f776e6572206f7220617070726f76656420666f7220616c6c000000602082015250565b612c7681612751565b8114612c8157600080fd5b50565b612c8d81612763565b8114612c9857600080fd5b50565b612ca48161276f565b8114612caf57600080fd5b50565b612cbb816127bb565b8114612cc657600080fd5b5056fea2646970667358221220d624d6f27fc6d3de884179dc3113e08495db8bd7d54925f9ab4d61278e57857e64736f6c63430008040033",
  "linkReferences": {},
  "deployedLinkReferences": {}
}