{
  "_format": "hh-sol-artifact-1",
  "contractName": "MyNFT",
  "sourceName": "contracts/MyNFT.sol",
  "abi": [
    {
      "inputs": [
        {
          "internalType": "string",
          "name": "name",
          "type": "string"
        },
        {
          "internalType": "string",
          "name": "abbreviation",
          "type": "string"
        }
      ],
      "stateMutability": "nonpayable",
      "type": "constructor"
    },
    {
      "anonymous": false,
      "inputs": [
        {
          "indexed": true,
          "internalType": "address",
          "name": "owner",
          "type": "address"
        },
        {
          "indexed": true,
          "internalType": "address",
          "name": "approved",
          "type": "address"
        },
        {
          "indexed": true,
          "internalType": "uint256",
          "name": "tokenId",
          "type": "uint256"
        }
      ],
      "name": "Approval",
      "type": "event"
    },
    {
      "anonymous": false,
      "inputs": [
        {
          "indexed": true,
          "internalType": "address",
          "name": "owner",
          "type": "address"
        },
        {
          "indexed": true,
          "internalType": "address",
          "name": "operator",
          "type": "address"
        },
        {
          "indexed": false,
          "internalType": "bool",
          "name": "approved",
          "type": "bool"
        }
      ],
      "name": "ApprovalForAll",
      "type": "event"
    },
    {
      "anonymous": false,
      "inputs": [
        {
          "indexed": false,
          "internalType": "uint256",
          "name": "_fromTokenId",
          "type": "uint256"
        },
        {
          "indexed": false,
          "internalType": "uint256",
          "name": "_toTokenId",
          "type": "uint256"
        }
      ],
      "name": "BatchMetadataUpdate",
      "type": "event"
    },
    {
      "anonymous": false,
      "inputs": [
        {
          "indexed": false,
          "internalType": "uint256",
          "name": "_tokenId",
          "type": "uint256"
        }
      ],
      "name": "MetadataUpdate",
      "type": "event"
    },
    {
      "anonymous": false,
      "inputs": [
        {
          "indexed": false,
          "internalType": "uint256",
          "name": "id",
          "type": "uint256"
        }
      ],
      "name": "NFTId",
      "type": "event"
    },
    {
      "anonymous": false,
      "inputs": [
        {
          "indexed": true,
          "internalType": "address",
          "name": "previousOwner",
          "type": "address"
        },
        {
          "indexed": true,
          "internalType": "address",
          "name": "newOwner",
          "type": "address"
        }
      ],
      "name": "OwnershipTransferred",
      "type": "event"
    },
    {
      "anonymous": false,
      "inputs": [
        {
          "indexed": true,
          "internalType": "address",
          "name": "from",
          "type": "address"
        },
        {
          "indexed": true,
          "internalType": "address",
          "name": "to",
          "type": "address"
        },
        {
          "indexed": true,
          "internalType": "uint256",
          "name": "tokenId",
          "type": "uint256"
        }
      ],
      "name": "Transfer",
      "type": "event"
    },
    {
      "inputs": [
        {
          "internalType": "address",
          "name": "to",
          "type": "address"
        },
        {
          "internalType": "uint256",
          "name": "tokenId",
          "type": "uint256"
        }
      ],
      "name": "approve",
      "outputs": [],
      "stateMutability": "nonpayable",
      "type": "function"
    },
    {
      "inputs": [
        {
          "internalType": "address",
          "name": "owner",
          "type": "address"
        }
      ],
      "name": "balanceOf",
      "outputs": [
        {
          "internalType": "uint256",
          "name": "",
          "type": "uint256"
        }
      ],
      "stateMutability": "view",
      "type": "function"
    },
    {
      "inputs": [
        {
          "internalType": "uint256",
          "name": "tokenId",
          "type": "uint256"
        }
      ],
      "name": "getApproved",
      "outputs": [
        {
          "internalType": "address",
          "name": "",
          "type": "address"
        }
      ],
      "stateMutability": "view",
      "type": "function"
    },
    {
      "inputs": [],
      "name": "getID",
      "outputs": [
        {
          "internalType": "uint256",
          "name": "",
          "type": "uint256"
        }
      ],
      "stateMutability": "view",
      "type": "function"
    },
    {
      "inputs": [
        {
          "internalType": "address",
          "name": "owner",
          "type": "address"
        },
        {
          "internalType": "address",
          "name": "operator",
          "type": "address"
        }
      ],
      "name": "isApprovedForAll",
      "outputs": [
        {
          "internalType": "bool",
          "name": "",
          "type": "bool"
        }
      ],
      "stateMutability": "view",
      "type": "function"
    },
    {
      "inputs": [
        {
          "internalType": "address",
          "name": "recipient",
          "type": "address"
        },
        {
          "internalType": "string",
          "name": "tokenURI",
          "type": "string"
        }
      ],
      "name": "mintNFT",
      "outputs": [
        {
          "internalType": "uint256",
          "name": "",
          "type": "uint256"
        }
      ],
      "stateMutability": "nonpayable",
      "type": "function"
    },
    {
      "inputs": [],
      "name": "name",
      "outputs": [
        {
          "internalType": "string",
          "name": "",
          "type": "string"
        }
      ],
      "stateMutability": "view",
      "type": "function"
    },
    {
      "inputs": [],
      "name": "owner",
      "outputs": [
        {
          "internalType": "address",
          "name": "",
          "type": "address"
        }
      ],
      "stateMutability": "view",
      "type": "function"
    },
    {
      "inputs": [
        {
          "internalType": "uint256",
          "name": "tokenId",
          "type": "uint256"
        }
      ],
      "name": "ownerOf",
      "outputs": [
        {
          "internalType": "address",
          "name": "",
          "type": "address"
        }
      ],
      "stateMutability": "view",
      "type": "function"
    },
    {
      "inputs": [],
      "name": "renounceOwnership",
      "outputs": [],
      "stateMutability": "nonpayable",
      "type": "function"
    },
    {
      "inputs": [
        {
          "internalType": "address",
          "name": "from",
          "type": "address"
        },
        {
          "internalType": "address",
          "name": "to",
          "type": "address"
        },
        {
          "internalType": "uint256",
          "name": "tokenId",
          "type": "uint256"
        }
      ],
      "name": "safeTransferFrom",
      "outputs": [],
      "stateMutability": "nonpayable",
      "type": "function"
    },
    {
      "inputs": [
        {
          "internalType": "address",
          "name": "from",
          "type": "address"
        },
        {
          "internalType": "address",
          "name": "to",
          "type": "address"
        },
        {
          "internalType": "uint256",
          "name": "tokenId",
          "type": "uint256"
        },
        {
          "internalType": "bytes",
          "name": "data",
          "type": "bytes"
        }
      ],
      "name": "safeTransferFrom",
      "outputs": [],
      "stateMutability": "nonpayable",
      "type": "function"
    },
    {
      "inputs": [
        {
          "internalType": "address",
          "name": "operator",
          "type": "address"
        },
        {
          "internalType": "bool",
          "name": "approved",
          "type": "bool"
        }
      ],
      "name": "setApprovalForAll",
      "outputs": [],
      "stateMutability": "nonpayable",
      "type": "function"
    },
    {
      "inputs": [
        {
          "internalType": "bytes4",
          "name": "interfaceId",
          "type": "bytes4"
        }
      ],
      "name": "supportsInterface",
      "outputs": [
        {
          "internalType": "bool",
          "name": "",
          "type": "bool"
        }
      ],
      "stateMutability": "view",
      "type": "function"
    },
    {
      "inputs": [],
      "name": "symbol",
      "outputs": [
        {
          "internalType": "string",
          "name": "",
          "type": "string"
        }
      ],
      "stateMutability": "view",
      "type": "function"
    },
    {
      "inputs": [
        {
          "internalType": "uint256",
          "name": "tokenId",
          "type": "uint256"
        }
      ],
      "name": "tokenURI",
      "outputs": [
        {
          "internalType": "string",
          "name": "",
          "type": "string"
        }
      ],
      "stateMutability": "view",
      "type": "function"
    },
    {
      "inputs": [
        {
          "internalType": "address",
          "name": "from",
          "type": "address"
        },
        {
          "internalType": "address",
          "name": "to",
          "type": "address"
        },
        {
          "internalType": "uint256",
          "name": "tokenId",
          "type": "uint256"
        }
      ],
      "name": "transferFrom",
      "outputs": [],
      "stateMutability": "nonpayable",
      "type": "function"
    },
    {
      "inputs": [
        {
          "internalType": "address",
          "name": "newOwner",
          "type": "address"
        }
      ],
      "name": "transferOwnership",
      "outputs": [],
      "stateMutability": "nonpayable",
      "type": "function"
    }
  ],
  "bytecode": "0x60806040523480156200001157600080fd5b506040516200320f3803806200320f833981810160405281019062000037919062000285565b818181600090805190602001906200005192919062000163565b5080600190805190602001906200006a92919062000163565b5050506200008d620000816200009560201b60201c565b6200009d60201b60201c565b505062000468565b600033905090565b6000600760009054906101000a900473ffffffffffffffffffffffffffffffffffffffff16905081600760006101000a81548173ffffffffffffffffffffffffffffffffffffffff021916908373ffffffffffffffffffffffffffffffffffffffff1602179055508173ffffffffffffffffffffffffffffffffffffffff168173ffffffffffffffffffffffffffffffffffffffff167f8be0079c531659141344cd1fd0a4f28419497f9722a3daafe3b4186f6b6457e060405160405180910390a35050565b82805462000171906200038d565b90600052602060002090601f016020900481019282620001955760008555620001e1565b82601f10620001b057805160ff1916838001178555620001e1565b82800160010185558215620001e1579182015b82811115620001e0578251825591602001919060010190620001c3565b5b509050620001f09190620001f4565b5090565b5b808211156200020f576000816000905550600101620001f5565b5090565b60006200022a620002248462000321565b620002f8565b9050828152602081018484840111156200024357600080fd5b6200025084828562000357565b509392505050565b600082601f8301126200026a57600080fd5b81516200027c84826020860162000213565b91505092915050565b600080604083850312156200029957600080fd5b600083015167ffffffffffffffff811115620002b457600080fd5b620002c28582860162000258565b925050602083015167ffffffffffffffff811115620002e057600080fd5b620002ee8582860162000258565b9150509250929050565b60006200030462000317565b9050620003128282620003c3565b919050565b6000604051905090565b600067ffffffffffffffff8211156200033f576200033e62000428565b5b6200034a8262000457565b9050602081019050919050565b60005b83811015620003775780820151818401526020810190506200035a565b8381111562000387576000848401525b50505050565b60006002820490506001821680620003a657607f821691505b60208210811415620003bd57620003bc620003f9565b5b50919050565b620003ce8262000457565b810181811067ffffffffffffffff82111715620003f057620003ef62000428565b5b80604052505050565b7f4e487b7100000000000000000000000000000000000000000000000000000000600052602260045260246000fd5b7f4e487b7100000000000000000000000000000000000000000000000000000000600052604160045260246000fd5b6000601f19601f8301169050919050565b612d9780620004786000396000f3fe608060405234801561001057600080fd5b50600436106101165760003560e01c80638da5cb5b116100a2578063b88d4fde11610071578063b88d4fde146102cd578063c87b56dd146102e9578063e985e9c514610319578063eacabe1414610349578063f2fde38b1461037957610116565b80638da5cb5b1461025757806395d89b4114610275578063a22cb46514610293578063ab9dbd07146102af57610116565b806323b872dd116100e957806323b872dd146101b557806342842e0e146101d15780636352211e146101ed57806370a082311461021d578063715018a61461024d57610116565b806301ffc9a71461011b57806306fdde031461014b578063081812fc14610169578063095ea7b314610199575b600080fd5b61013560048036038101906101309190612147565b610395565b6040516101429190612507565b60405180910390f35b6101536103f6565b6040516101609190612522565b60405180910390f35b610183600480360381019061017e9190612199565b610488565b60405161019091906124a0565b60405180910390f35b6101b360048036038101906101ae919061210b565b6104ce565b005b6101cf60048036038101906101ca9190611fb1565b6105e6565b005b6101eb60048036038101906101e69190611fb1565b610646565b005b61020760048036038101906102029190612199565b610666565b60405161021491906124a0565b60405180910390f35b61023760048036038101906102329190611f4c565b6106ed565b6040516102449190612704565b60405180910390f35b6102556107a5565b005b61025f6107b9565b60405161026c91906124a0565b60405180910390f35b61027d6107e3565b60405161028a9190612522565b60405180910390f35b6102ad60048036038101906102a8919061207b565b610875565b005b6102b761088b565b6040516102c49190612704565b60405180910390f35b6102e760048036038101906102e29190612000565b6108a4565b005b61030360048036038101906102fe9190612199565b610906565b6040516103109190612522565b60405180910390f35b610333600480360381019061032e9190611f75565b610a19565b6040516103409190612507565b60405180910390f35b610363600480360381019061035e91906120b7565b610aad565b6040516103709190612704565b60405180910390f35b610393600480360381019061038e9190611f4c565b610aed565b005b6000634906490660e01b7bffffffffffffffffffffffffffffffffffffffffffffffffffffffff1916827bffffffffffffffffffffffffffffffffffffffffffffffffffffffff191614806103ef57506103ee82610b71565b5b9050919050565b6060600080546104059061289f565b80601f01602080910402602001604051908101604052809291908181526020018280546104319061289f565b801561047e5780601f106104535761010080835404028352916020019161047e565b820191906000526020600020905b81548152906001019060200180831161046157829003601f168201915b5050505050905090565b600061049382610c53565b6004600083815260200190815260200160002060009054906101000a900473ffffffffffffffffffffffffffffffffffffffff169050919050565b60006104d982610666565b90508073ffffffffffffffffffffffffffffffffffffffff168373ffffffffffffffffffffffffffffffffffffffff16141561054a576040517f08c379a0000000000000000000000000000000000000000000000000000000008152600401610541906126c4565b60405180910390fd5b8073ffffffffffffffffffffffffffffffffffffffff16610569610c9e565b73ffffffffffffffffffffffffffffffffffffffff161480610598575061059781610592610c9e565b610a19565b5b6105d7576040517f08c379a00000000000000000000000000000000000000000000000000000000081526004016105ce906126e4565b60405180910390fd5b6105e18383610ca6565b505050565b6105f76105f1610c9e565b82610d5f565b610636576040517f08c379a000000000000000000000000000000000000000000000000000000000815260040161062d90612544565b60405180910390fd5b610641838383610df4565b505050565b610661838383604051806020016040528060008152506108a4565b505050565b600080610672836110ee565b9050600073ffffffffffffffffffffffffffffffffffffffff168173ffffffffffffffffffffffffffffffffffffffff1614156106e4576040517f08c379a00000000000000000000000000000000000000000000000000000000081526004016106db906126a4565b60405180910390fd5b80915050919050565b60008073ffffffffffffffffffffffffffffffffffffffff168273ffffffffffffffffffffffffffffffffffffffff16141561075e576040517f08c379a000000000000000000000000000000000000000000000000000000000815260040161075590612624565b60405180910390fd5b600360008373ffffffffffffffffffffffffffffffffffffffff1673ffffffffffffffffffffffffffffffffffffffff168152602001908152602001600020549050919050565b6107ad61112b565b6107b760006111a9565b565b6000600760009054906101000a900473ffffffffffffffffffffffffffffffffffffffff16905090565b6060600180546107f29061289f565b80601f016020809104026020016040519081016040528092919081815260200182805461081e9061289f565b801561086b5780601f106108405761010080835404028352916020019161086b565b820191906000526020600020905b81548152906001019060200180831161084e57829003601f168201915b5050505050905090565b610887610880610c9e565b838361126f565b5050565b600061089561112b565b61089f60086113dc565b905090565b6108b56108af610c9e565b83610d5f565b6108f4576040517f08c379a00000000000000000000000000000000000000000000000000000000081526004016108eb90612544565b60405180910390fd5b610900848484846113ea565b50505050565b606061091182610c53565b60006006600084815260200190815260200160002080546109319061289f565b80601f016020809104026020016040519081016040528092919081815260200182805461095d9061289f565b80156109aa5780601f1061097f576101008083540402835291602001916109aa565b820191906000526020600020905b81548152906001019060200180831161098d57829003601f168201915b5050505050905060006109bb611446565b90506000815114156109d1578192505050610a14565b600082511115610a065780826040516020016109ee92919061247c565b60405160208183030381529060405292505050610a14565b610a0f8461145d565b925050505b919050565b6000600560008473ffffffffffffffffffffffffffffffffffffffff1673ffffffffffffffffffffffffffffffffffffffff16815260200190815260200160002060008373ffffffffffffffffffffffffffffffffffffffff1673ffffffffffffffffffffffffffffffffffffffff16815260200190815260200160002060009054906101000a900460ff16905092915050565b6000610ab761112b565b610ac160086114c5565b6000610acd60086113dc565b9050610ad984826114db565b610ae381846116f9565b8091505092915050565b610af561112b565b600073ffffffffffffffffffffffffffffffffffffffff168173ffffffffffffffffffffffffffffffffffffffff161415610b65576040517f08c379a0000000000000000000000000000000000000000000000000000000008152600401610b5c90612584565b60405180910390fd5b610b6e816111a9565b50565b60007f80ac58cd000000000000000000000000000000000000000000000000000000007bffffffffffffffffffffffffffffffffffffffffffffffffffffffff1916827bffffffffffffffffffffffffffffffffffffffffffffffffffffffff19161480610c3c57507f5b5e139f000000000000000000000000000000000000000000000000000000007bffffffffffffffffffffffffffffffffffffffffffffffffffffffff1916827bffffffffffffffffffffffffffffffffffffffffffffffffffffffff1916145b80610c4c5750610c4b826117a4565b5b9050919050565b610c5c8161180e565b610c9b576040517f08c379a0000000000000000000000000000000000000000000000000000000008152600401610c92906126a4565b60405180910390fd5b50565b600033905090565b816004600083815260200190815260200160002060006101000a81548173ffffffffffffffffffffffffffffffffffffffff021916908373ffffffffffffffffffffffffffffffffffffffff160217905550808273ffffffffffffffffffffffffffffffffffffffff16610d1983610666565b73ffffffffffffffffffffffffffffffffffffffff167f8c5be1e5ebec7d5bd14f71427d1e84f3dd0314c0f7b2291e5b200ac8c7c3b92560405160405180910390a45050565b600080610d6b83610666565b90508073ffffffffffffffffffffffffffffffffffffffff168473ffffffffffffffffffffffffffffffffffffffff161480610dad5750610dac8185610a19565b5b80610deb57508373ffffffffffffffffffffffffffffffffffffffff16610dd384610488565b73ffffffffffffffffffffffffffffffffffffffff16145b91505092915050565b8273ffffffffffffffffffffffffffffffffffffffff16610e1482610666565b73ffffffffffffffffffffffffffffffffffffffff1614610e6a576040517f08c379a0000000000000000000000000000000000000000000000000000000008152600401610e61906125a4565b60405180910390fd5b600073ffffffffffffffffffffffffffffffffffffffff168273ffffffffffffffffffffffffffffffffffffffff161415610eda576040517f08c379a0000000000000000000000000000000000000000000000000000000008152600401610ed1906125e4565b60405180910390fd5b610ee7838383600161184f565b8273ffffffffffffffffffffffffffffffffffffffff16610f0782610666565b73ffffffffffffffffffffffffffffffffffffffff1614610f5d576040517f08c379a0000000000000000000000000000000000000000000000000000000008152600401610f54906125a4565b60405180910390fd5b6004600082815260200190815260200160002060006101000a81549073ffffffffffffffffffffffffffffffffffffffff02191690556001600360008573ffffffffffffffffffffffffffffffffffffffff1673ffffffffffffffffffffffffffffffffffffffff168152602001908152602001600020600082825403925050819055506001600360008473ffffffffffffffffffffffffffffffffffffffff1673ffffffffffffffffffffffffffffffffffffffff16815260200190815260200160002060008282540192505081905550816002600083815260200190815260200160002060006101000a81548173ffffffffffffffffffffffffffffffffffffffff021916908373ffffffffffffffffffffffffffffffffffffffff160217905550808273ffffffffffffffffffffffffffffffffffffffff168473ffffffffffffffffffffffffffffffffffffffff167fddf252ad1be2c89b69c2b068fc378daa952ba7f163c4a11628f55a4df523b3ef60405160405180910390a46110e98383836001611855565b505050565b60006002600083815260200190815260200160002060009054906101000a900473ffffffffffffffffffffffffffffffffffffffff169050919050565b611133610c9e565b73ffffffffffffffffffffffffffffffffffffffff166111516107b9565b73ffffffffffffffffffffffffffffffffffffffff16146111a7576040517f08c379a000000000000000000000000000000000000000000000000000000000815260040161119e90612684565b60405180910390fd5b565b6000600760009054906101000a900473ffffffffffffffffffffffffffffffffffffffff16905081600760006101000a81548173ffffffffffffffffffffffffffffffffffffffff021916908373ffffffffffffffffffffffffffffffffffffffff1602179055508173ffffffffffffffffffffffffffffffffffffffff168173ffffffffffffffffffffffffffffffffffffffff167f8be0079c531659141344cd1fd0a4f28419497f9722a3daafe3b4186f6b6457e060405160405180910390a35050565b8173ffffffffffffffffffffffffffffffffffffffff168373ffffffffffffffffffffffffffffffffffffffff1614156112de576040517f08c379a00000000000000000000000000000000000000000000000000000000081526004016112d590612604565b60405180910390fd5b80600560008573ffffffffffffffffffffffffffffffffffffffff1673ffffffffffffffffffffffffffffffffffffffff16815260200190815260200160002060008473ffffffffffffffffffffffffffffffffffffffff1673ffffffffffffffffffffffffffffffffffffffff16815260200190815260200160002060006101000a81548160ff0219169083151502179055508173ffffffffffffffffffffffffffffffffffffffff168373ffffffffffffffffffffffffffffffffffffffff167f17307eab39ab6107e8899845ad3d59bd9653f200f220920489ca2b5937696c31836040516113cf9190612507565b60405180910390a3505050565b600081600001549050919050565b6113f5848484610df4565b6114018484848461185b565b611440576040517f08c379a000000000000000000000000000000000000000000000000000000000815260040161143790612564565b60405180910390fd5b50505050565b606060405180602001604052806000815250905090565b606061146882610c53565b6000611472611446565b9050600081511161149257604051806020016040528060008152506114bd565b8061149c846119f2565b6040516020016114ad92919061247c565b6040516020818303038152906040525b915050919050565b6001816000016000828254019250508190555050565b600073ffffffffffffffffffffffffffffffffffffffff168273ffffffffffffffffffffffffffffffffffffffff16141561154b576040517f08c379a000000000000000000000000000000000000000000000000000000000815260040161154290612664565b60405180910390fd5b6115548161180e565b15611594576040517f08c379a000000000000000000000000000000000000000000000000000000000815260040161158b906125c4565b60405180910390fd5b6115a260008383600161184f565b6115ab8161180e565b156115eb576040517f08c379a00000000000000000000000000000000000000000000000000000000081526004016115e2906125c4565b60405180910390fd5b6001600360008473ffffffffffffffffffffffffffffffffffffffff1673ffffffffffffffffffffffffffffffffffffffff16815260200190815260200160002060008282540192505081905550816002600083815260200190815260200160002060006101000a81548173ffffffffffffffffffffffffffffffffffffffff021916908373ffffffffffffffffffffffffffffffffffffffff160217905550808273ffffffffffffffffffffffffffffffffffffffff16600073ffffffffffffffffffffffffffffffffffffffff167fddf252ad1be2c89b69c2b068fc378daa952ba7f163c4a11628f55a4df523b3ef60405160405180910390a46116f5600083836001611855565b5050565b6117028261180e565b611741576040517f08c379a000000000000000000000000000000000000000000000000000000000815260040161173890612644565b60405180910390fd5b80600660008481526020019081526020016000209080519060200190611768929190611d70565b507ff8e1a15aba9398e019f0b49df1a4fde98ee17ae345cb5f6b5e2c27f5033e8ce7826040516117989190612704565b60405180910390a15050565b60007f01ffc9a7000000000000000000000000000000000000000000000000000000007bffffffffffffffffffffffffffffffffffffffffffffffffffffffff1916827bffffffffffffffffffffffffffffffffffffffffffffffffffffffff1916149050919050565b60008073ffffffffffffffffffffffffffffffffffffffff16611830836110ee565b73ffffffffffffffffffffffffffffffffffffffff1614159050919050565b50505050565b50505050565b600061187c8473ffffffffffffffffffffffffffffffffffffffff16611b16565b156119e5578373ffffffffffffffffffffffffffffffffffffffff1663150b7a026118a5610c9e565b8786866040518563ffffffff1660e01b81526004016118c794939291906124bb565b602060405180830381600087803b1580156118e157600080fd5b505af192505050801561191257506040513d601f19601f8201168201806040525081019061190f9190612170565b60015b611995573d8060008114611942576040519150601f19603f3d011682016040523d82523d6000602084013e611947565b606091505b5060008151141561198d576040517f08c379a000000000000000000000000000000000000000000000000000000000815260040161198490612564565b60405180910390fd5b805181602001fd5b63150b7a0260e01b7bffffffffffffffffffffffffffffffffffffffffffffffffffffffff1916817bffffffffffffffffffffffffffffffffffffffffffffffffffffffff1916149150506119ea565b600190505b949350505050565b606060006001611a0184611b39565b01905060008167ffffffffffffffff811115611a46577f4e487b7100000000000000000000000000000000000000000000000000000000600052604160045260246000fd5b6040519080825280601f01601f191660200182016040528015611a785781602001600182028036833780820191505090505b509050600082602001820190505b600115611b0b578080600190039150507f3031323334353637383961626364656600000000000000000000000000000000600a86061a8153600a8581611af5577f4e487b7100000000000000000000000000000000000000000000000000000000600052601260045260246000fd5b0494506000851415611b0657611b0b565b611a86565b819350505050919050565b6000808273ffffffffffffffffffffffffffffffffffffffff163b119050919050565b600080600090507a184f03e93ff9f4daa797ed6e38ed64bf6a1f0100000000000000008310611bbd577a184f03e93ff9f4daa797ed6e38ed64bf6a1f0100000000000000008381611bb3577f4e487b7100000000000000000000000000000000000000000000000000000000600052601260045260246000fd5b0492506040810190505b6d04ee2d6d415b85acef81000000008310611c20576d04ee2d6d415b85acef81000000008381611c16577f4e487b7100000000000000000000000000000000000000000000000000000000600052601260045260246000fd5b0492506020810190505b662386f26fc100008310611c7557662386f26fc100008381611c6b577f4e487b7100000000000000000000000000000000000000000000000000000000600052601260045260246000fd5b0492506010810190505b6305f5e1008310611cc4576305f5e1008381611cba577f4e487b7100000000000000000000000000000000000000000000000000000000600052601260045260246000fd5b0492506008810190505b6127108310611d0f576127108381611d05577f4e487b7100000000000000000000000000000000000000000000000000000000600052601260045260246000fd5b0492506004810190505b60648310611d585760648381611d4e577f4e487b7100000000000000000000000000000000000000000000000000000000600052601260045260246000fd5b0492506002810190505b600a8310611d67576001810190505b80915050919050565b828054611d7c9061289f565b90600052602060002090601f016020900481019282611d9e5760008555611de5565b82601f10611db757805160ff1916838001178555611de5565b82800160010185558215611de5579182015b82811115611de4578251825591602001919060010190611dc9565b5b509050611df29190611df6565b5090565b5b80821115611e0f576000816000905550600101611df7565b5090565b6000611e26611e2184612744565b61271f565b905082815260208101848484011115611e3e57600080fd5b611e4984828561285d565b509392505050565b6000611e64611e5f84612775565b61271f565b905082815260208101848484011115611e7c57600080fd5b611e8784828561285d565b509392505050565b600081359050611e9e81612d05565b92915050565b600081359050611eb381612d1c565b92915050565b600081359050611ec881612d33565b92915050565b600081519050611edd81612d33565b92915050565b600082601f830112611ef457600080fd5b8135611f04848260208601611e13565b91505092915050565b600082601f830112611f1e57600080fd5b8135611f2e848260208601611e51565b91505092915050565b600081359050611f4681612d4a565b92915050565b600060208284031215611f5e57600080fd5b6000611f6c84828501611e8f565b91505092915050565b60008060408385031215611f8857600080fd5b6000611f9685828601611e8f565b9250506020611fa785828601611e8f565b9150509250929050565b600080600060608486031215611fc657600080fd5b6000611fd486828701611e8f565b9350506020611fe586828701611e8f565b9250506040611ff686828701611f37565b9150509250925092565b6000806000806080858703121561201657600080fd5b600061202487828801611e8f565b945050602061203587828801611e8f565b935050604061204687828801611f37565b925050606085013567ffffffffffffffff81111561206357600080fd5b61206f87828801611ee3565b91505092959194509250565b6000806040838503121561208e57600080fd5b600061209c85828601611e8f565b92505060206120ad85828601611ea4565b9150509250929050565b600080604083850312156120ca57600080fd5b60006120d885828601611e8f565b925050602083013567ffffffffffffffff8111156120f557600080fd5b61210185828601611f0d565b9150509250929050565b6000806040838503121561211e57600080fd5b600061212c85828601611e8f565b925050602061213d85828601611f37565b9150509250929050565b60006020828403121561215957600080fd5b600061216784828501611eb9565b91505092915050565b60006020828403121561218257600080fd5b600061219084828501611ece565b91505092915050565b6000602082840312156121ab57600080fd5b60006121b984828501611f37565b91505092915050565b6121cb816127e9565b82525050565b6121da816127fb565b82525050565b60006121eb826127a6565b6121f581856127bc565b935061220581856020860161286c565b61220e81612960565b840191505092915050565b6000612224826127b1565b61222e81856127cd565b935061223e81856020860161286c565b61224781612960565b840191505092915050565b600061225d826127b1565b61226781856127de565b935061227781856020860161286c565b80840191505092915050565b6000612290602d836127cd565b915061229b82612971565b604082019050919050565b60006122b36032836127cd565b91506122be826129c0565b604082019050919050565b60006122d66026836127cd565b91506122e182612a0f565b604082019050919050565b60006122f96025836127cd565b915061230482612a5e565b604082019050919050565b600061231c601c836127cd565b915061232782612aad565b602082019050919050565b600061233f6024836127cd565b915061234a82612ad6565b604082019050919050565b60006123626019836127cd565b915061236d82612b25565b602082019050919050565b60006123856029836127cd565b915061239082612b4e565b604082019050919050565b60006123a8602e836127cd565b91506123b382612b9d565b604082019050919050565b60006123cb6020836127cd565b91506123d682612bec565b602082019050919050565b60006123ee6020836127cd565b91506123f982612c15565b602082019050919050565b60006124116018836127cd565b915061241c82612c3e565b602082019050919050565b60006124346021836127cd565b915061243f82612c67565b604082019050919050565b6000612457603d836127cd565b915061246282612cb6565b604082019050919050565b61247681612853565b82525050565b60006124888285612252565b91506124948284612252565b91508190509392505050565b60006020820190506124b560008301846121c2565b92915050565b60006080820190506124d060008301876121c2565b6124dd60208301866121c2565b6124ea604083018561246d565b81810360608301526124fc81846121e0565b905095945050505050565b600060208201905061251c60008301846121d1565b92915050565b6000602082019050818103600083015261253c8184612219565b905092915050565b6000602082019050818103600083015261255d81612283565b9050919050565b6000602082019050818103600083015261257d816122a6565b9050919050565b6000602082019050818103600083015261259d816122c9565b9050919050565b600060208201905081810360008301526125bd816122ec565b9050919050565b600060208201905081810360008301526125dd8161230f565b9050919050565b600060208201905081810360008301526125fd81612332565b9050919050565b6000602082019050818103600083015261261d81612355565b9050919050565b6000602082019050818103600083015261263d81612378565b9050919050565b6000602082019050818103600083015261265d8161239b565b9050919050565b6000602082019050818103600083015261267d816123be565b9050919050565b6000602082019050818103600083015261269d816123e1565b9050919050565b600060208201905081810360008301526126bd81612404565b9050919050565b600060208201905081810360008301526126dd81612427565b9050919050565b600060208201905081810360008301526126fd8161244a565b9050919050565b6000602082019050612719600083018461246d565b92915050565b600061272961273a565b905061273582826128d1565b919050565b6000604051905090565b600067ffffffffffffffff82111561275f5761275e612931565b5b61276882612960565b9050602081019050919050565b600067ffffffffffffffff8211156127905761278f612931565b5b61279982612960565b9050602081019050919050565b600081519050919050565b600081519050919050565b600082825260208201905092915050565b600082825260208201905092915050565b600081905092915050565b60006127f482612833565b9050919050565b60008115159050919050565b60007fffffffff0000000000000000000000000000000000000000000000000000000082169050919050565b600073ffffffffffffffffffffffffffffffffffffffff82169050919050565b6000819050919050565b82818337600083830152505050565b60005b8381101561288a57808201518184015260208101905061286f565b83811115612899576000848401525b50505050565b600060028204905060018216806128b757607f821691505b602082108114156128cb576128ca612902565b5b50919050565b6128da82612960565b810181811067ffffffffffffffff821117156128f9576128f8612931565b5b80604052505050565b7f4e487b7100000000000000000000000000000000000000000000000000000000600052602260045260246000fd5b7f4e487b7100000000000000000000000000000000000000000000000000000000600052604160045260246000fd5b6000601f19601f8301169050919050565b7f4552433732313a2063616c6c6572206973206e6f7420746f6b656e206f776e6560008201527f72206f7220617070726f76656400000000000000000000000000000000000000602082015250565b7f4552433732313a207472616e7366657220746f206e6f6e20455243373231526560008201527f63656976657220696d706c656d656e7465720000000000000000000000000000602082015250565b7f4f776e61626c653a206e6577206f776e657220697320746865207a65726f206160008201527f6464726573730000000000000000000000000000000000000000000000000000602082015250565b7f4552433732313a207472616e736665722066726f6d20696e636f72726563742060008201527f6f776e6572000000000000000000000000000000000000000000000000000000602082015250565b7f4552433732313a20746f6b656e20616c7265616479206d696e74656400000000600082015250565b7f4552433732313a207472616e7366657220746f20746865207a65726f2061646460008201527f7265737300000000000000000000000000000000000000000000000000000000602082015250565b7f4552433732313a20617070726f766520746f2063616c6c657200000000000000600082015250565b7f4552433732313a2061646472657373207a65726f206973206e6f74206120766160008201527f6c6964206f776e65720000000000000000000000000000000000000000000000602082015250565b7f45524337323155524953746f726167653a2055524920736574206f66206e6f6e60008201527f6578697374656e7420746f6b656e000000000000000000000000000000000000602082015250565b7f4552433732313a206d696e7420746f20746865207a65726f2061646472657373600082015250565b7f4f776e61626c653a2063616c6c6572206973206e6f7420746865206f776e6572600082015250565b7f4552433732313a20696e76616c696420746f6b656e2049440000000000000000600082015250565b7f4552433732313a20617070726f76616c20746f2063757272656e74206f776e6560008201527f7200000000000000000000000000000000000000000000000000000000000000602082015250565b7f4552433732313a20617070726f76652063616c6c6572206973206e6f7420746f60008201527f6b656e206f776e6572206f7220617070726f76656420666f7220616c6c000000602082015250565b612d0e816127e9565b8114612d1957600080fd5b50565b612d25816127fb565b8114612d3057600080fd5b50565b612d3c81612807565b8114612d4757600080fd5b50565b612d5381612853565b8114612d5e57600080fd5b5056fea26469706673582212209fb8feecd9eb6d54015c7588e6d8982f2e0f5bf67640aea1da0978f618bf9f6164736f6c63430008040033",
  "linkReferences": {},
  "deployedLinkReferences": {}
}